:020000040800F2
:10000000100D0020B9120008151300081513000880
:100010001513000815130008151300080000000050
:1000200000000000000000000000000015130008A0
:100030001513000800000000151300088D140008B7
:1000400015130008151300081513000815130008F0
:1000500015130008151300081513000815130008E0
:1000600015130008151300081513000815130008D0
:1000700015130008151300081513000815130008C0
:1000800015130008151300081513000815130008B0
:1000900015130008151300081513000815130008A0
:1000A0001513000815130008151300081513000890
:1000B000151300081513000839140008151300085B
:1000C0001513000815130008151300081513000870
:1000D0001513000815130008151300081513000860
:1000E0001513000815130008151300081513000850
:1000F0001513000815130008151300081513000840
:10010000151300081513000815130008151300082F
:10011000151300081513000815130008151300081F
:10012000151300081513000815130008151300080F
:1001300015130008151300081513000815130008FF
:1001400015130008151300081513000815130008EF
:1001500015130008151300081513000815130008DF
:1001600015130008151300081513000815130008CF
:1001700015130008151300081513000815130008BF
:10018000151300081513000880B582B000AF786021
:100190007B68002B01D1012357E07B6893F8513035
:1001A000DBB2002B06D17B68002283F850207868F0
:1001B00000F0E0FB7B68022283F851207B681B681B
:1001C0007A681268126822F040021A607B681B6825
:1001D0007A6851687A68926811437A68D2681143E4
:1001E0007A68126911437A68526911437A68926990
:1001F00002F4007211437A68D26911437A68126A74
:1002000011437A68926A0A431A607B681B687A68AD
:100210009269120C02F004017A68526A0A435A6029
:100220007B681B687A68D26A1A617B681B687A6887
:100230001268D26922F40062DA617B6800225A6592
:100240007B68012283F85120002318460837BD46F9
:1002500080BD00BF80B588B000AFF860B9607A603B
:100260007B800023FB610023BB61FB6893F8513066
:10027000DBB2FB61FB69012B03D0FB69222B40F051
:100280003F82BB68002B05D07B68002B02D07B88A7
:10029000002B01D1012334E2FB6893F85030012B8D
:1002A00001D102232DE2FB68012283F85020FB6874
:1002B00093F85130DBB2012B03D1FB68322283F873
:1002C0005120FB6800225A65FB687A689A63FB68D4
:1002D0007A889A87FB687A88DA87FB68BA681A6333
:1002E000FB687A889A86FB687A88DA86FB6800223F
:1002F0009A64FB680022DA64FB689B6AB3F5005FCE
:100300000FD1FB681B68FA681268126822F4005269
:100310001A60FB681B68FA681268126842F400529F
:100320001A60FB681B681B6803F04003002B07D1B1
:10033000FB681B68FA681268126842F040021A6093
:10034000FB68DB68B3F5006F40F0BF80FB685B685B
:10035000002B08D0FB685B68B3F5827F14D1FB6883
:10036000DB8E012B10D1FB681B68FA68126B1288B8
:10037000DA60FB681B6B9A1CFB681A63FB68DB8EF8
:10038000013B9AB2FB68DA86FB68DB8E002B2AD130
:10039000FB689B6AB3F5005F07D1FB681B68FA68CE
:1003A0001268126842F480521A60F8680121002233
:1003B000BB6A00F0ABF90346002B01D00323A0E198
:1003C000FB689B6BFA681268D26892B21A80FB686D
:1003D0009B6B9A1CFB689A63FB68DB8F013B9AB2AC
:1003E000FB68DA8721E149E0F86802210022BB6A54
:1003F00000F08CF90346002B01D0032381E1FB6858
:100400001B68FA68126B1288DA60FB681B6B9A1C17
:10041000FB681A63FB68DB8E013B9AB2FB68DA86E5
:10042000FB68DB8E002B0CD1FB689B6AB3F5005F89
:1004300007D1FB681B68FA681268126842F48052A0
:100440001A60F86801210022BB6A00F05FF90346D8
:10045000002B01D0032354E1FB689B6BFA68126800
:10046000D26892B21A80FB689B6B9A1CFB689A63F5
:10047000FB68DB8F013B9AB2FB68DA87FB68DB8E97
:10048000002BB1D1FB685B68002B40F0CE80F86890
:1004900001210022BB6A00F039F90346002B01D08C
:1004A00003232EE1FB689B6BFA681268D26892B254
:1004B0001A80FB689B6B9A1CFB689A63FB68DB8F56
:1004C000013B9AB2FB68DA87AFE0FB685B68002B00
:1004D00008D0FB685B68B3F5827F12D1FB68DB8EC6
:1004E000012B0ED1FB681A68FB681B6B581CF9685E
:1004F00008631B78D360FB68DB8E013B9AB2FB6814
:10050000DA86FB68DB8E002B25D1FB689B6AB3F58E
:10051000005F07D1FB681B68FA681268126842F432
:1005200080521A60F86801210022BB6A00F0EEF8E0
:100530000346002B01D00323E3E0FB689B6BFA68C2
:100540001268D268D2B21A70FB68DB8F013B9AB294
:10055000FB68DA8769E045E0F86802210022BB6A9F
:1005600000F0D4F80346002B01D00323C9E0FB6858
:100570001A68FB681B6B581CF96808631B78D3600A
:10058000FB68DB8E013B9AB2FB68DA86FB68DB8E88
:10059000002B0CD1FB689B6AB3F5005F07D1FB68A9
:1005A0001B68FA681268126842F480521A60F86890
:1005B00001210022BB6A00F0A9F80346002B01D0FC
:1005C00003239EE0FB689B6B591CFA689163FA68F1
:1005D0001268D268D2B21A70FB68DB8F013B9AB204
:1005E000FB68DA87FB68DB8E002BB5D1FB685B68A4
:1005F000002B1AD1F86801210022BB6A00F086F8AE
:100600000346002B01D003237BE0FB689B6B591C46
:10061000FA689163FA681268D268D2B21A70FB68FD
:10062000DB8F013B9AB2FB68DA87FB689B6AB3F504
:10063000005F16D1F86801210022BB6A00F066F85D
:100640000346002B07D0FB685B6D43F00202FB689A
:100650005A65032355E0FB681B68DB689BB2FB828D
:10066000FB8AF86880210122BB6A00F04FF803463C
:10067000002B07D0FB685B6D43F02002FB685A65D6
:1006800003233EE0FB68012283F85120FB681B68CE
:100690009B6803F01003002B0CBF00230123DBB287
:1006A000BB61FB689B6AB3F5005F23D1BB69002B7C
:1006B00020D0FB685B6D43F00202FB685A65FB6863
:1006C0009B6AB3F5005F0FD1FB681B68FA6812687C
:1006D000126822F400521A60FB681B68FA681268FC
:1006E000126842F400521A60FB68002283F850201E
:1006F000012306E0FB68002283F85020002300E07D
:10070000022318462037BD4680BD00BF80B586B0A5
:1007100000AFF860B9603B601346FB7100237B615A
:1007200001F058FA7861FB79002B47D13DE03B6836
:10073000B3F1FF3F39D03B68002B07D001F04AFAF4
:1007400002467B69D21A3B689A422ED9FB681B6825
:10075000FA681268526822F0E0025A60FB681B686F
:10076000FA681268126822F040021A60FB689B6AFD
:10077000B3F5005F0FD1FB681B68FA681268126856
:1007800022F400521A60FB681B68FA68126812684B
:1007900042F400521A60FB68012283F85120FB6882
:1007A000002283F85020032350E0FB681B689A68FE
:1007B000BB681A40BB689A42B9D146E03DE03B684D
:1007C000B3F1FF3F39D03B68002B07D001F002FAAC
:1007D00002467B69D21A3B689A422ED9FB681B6895
:1007E000FA681268526822F0E0025A60FB681B68DF
:1007F000FA681268126822F040021A60FB689B6A6D
:10080000B3F5005F0FD1FB681B68FA6812681268C5
:1008100022F400521A60FB681B68FA6812681268BA
:1008200042F400521A60FB68012283F85120FB68F1
:10083000002283F85020032308E0FB681B689A68B5
:10084000BB681A40BB689A42B9D0002318461837D3
:10085000BD4680BD80B586B000AF00233B60224B13
:10086000214A126B42F002021A631F4B1B6B03F00A
:1008700002033B603B681D4B1D4A1A601B4B4FF443
:1008800082725A60194B00229A60184B0022DA607B
:10089000164B00221A61154B00225A61134B4FF47C
:1008A00000729A61114B0022DA61104B00221A6229
:1008B0000E4B00225A620D4B00229A620B4B0A2209
:1008C000DA620A48FFF760FC40237B600123BB60CB
:1008D0000023FB6000233B613B1D0648194601F0E5
:1008E000DFFD1837BD4680BD003802407804002087
:1008F000003001400004024080B485B000AFF860D1
:10090000B9601346FB80002318461437BD465DF8D6
:10091000047B704780B586B002AFF860B9601346BB
:10092000FB800C484021002201F03CFFFB884FF681
:10093000FF7200920848F968BA68FFF78BFC054817
:100940004021012201F02EFF002318461037BD463A
:1009500080BD00BF000402407804002080B500AFD5
:10096000032001F035FD4FF0FF300021002201F09F
:1009700039FD80BD80B588B000AF78607B681A68AB
:10098000194B9A422DD10023BB60184B174A526C69
:1009900042F480525A64154B5B6C03F48053BB6085
:1009A000BB68E023FB6002233B6100237B610323E0
:1009B000BB610523FB6107F10C030D48194601F0EB
:1009C0006FFD0823FB6002233B6100237B6103234F
:1009D000BB610523FB6107F10C030648194601F0D2
:1009E0005FFD2037BD4680BD003001400038024029
:1009F000000002400004024080B485B000AF78607F
:100A00007B681A680A4B9A420DD10023FB60094BA0
:100A1000084A126C42F004021A64064B1B6C03F085
:100A20000403FB60FB681437BD465DF8047B704728
:100A3000000800400038024080B588B000AF786000
:100A40007B681A68114B9A421DD10023BB60104B82
:100A50000F4A126C42F400321A640D4B1B6C03F403
:100A60000033BB60BB680C23FB6002233B610123A6
:100A70007B610323BB610723FB6107F10C0305487E
:100A8000194601F00DFD2037BD4680BD00440040F1
:100A9000003802400000024080B582B000AF7860AC
:100AA0007B68002B01D101233BE07B6893F8393050
:100AB000DBB2002B06D17B68002283F838207868EF
:100AC000FFF7BAFF7B68022283F839207B681B6836
:100AD0007A681268D26822F40052DA60786800F00E
:100AE00067F97B681B687A681268126922F4904281
:100AF0001A617B681B687A681268526922F02A02C0
:100B00005A617B681B687A681268D26842F40052A6
:100B1000DA607B680022DA637B68012283F839207F
:100B2000002318460837BD4680BD00BF80B586B09B
:100B300000AFF860B9603B601346FB8000237B6127
:100B4000FB6893F83930DBB27B617B69012B03D002
:100B50007B69222B40F08D80BB68002B02D0FB8884
:100B6000002B01D1012385E0FB6893F83830012B7D
:100B700001D102237EE0FB68012283F83820FB6864
:100B80000022DA63FB6893F83930DBB2222B04D100
:100B9000FB68322283F8392003E0FB68122283F8D5
:100BA0003920FB68FA889A84FB68FA88DA843CE08A
:100BB000FB68DB8C013B9AB2FB68DA84FB689B68BC
:100BC000B3F5805F1FD1F868802100223B6800F0F8
:100BD00055F80346002B01D003234BE0BB683B6173
:100BE000FB681B683A691288C2F308025A60FB6806
:100BF0001B69002B03D1BB680233BB6015E0BB68E7
:100C00000133BB6011E0F868802100223B6800F0EE
:100C100035F80346002B01D003232BE0FB681A684C
:100C2000BB68591CB9601B785360FB68DB8C002BD8
:100C3000BED1F868402100223B6800F01FF803464F
:100C4000002B01D0032315E0FB6893F83930DBB2A9
:100C5000322B04D1FB68222283F8392003E0FB68A1
:100C6000012283F83920FB68002283F83820002312
:100C700000E0022318461837BD4680BD80B586B017
:100C800000AFF860B9603B601346FB7100237B61E5
:100C900000F0A0FF7861FB79002B42D138E03B687F
:100CA000B3F1FF3F34D03B68002B07D000F092FF38
:100CB00002467B69D21A3B689A4229D9FB681B68B5
:100CC000FA681268D26822F08002DA60FB681B685A
:100CD000FA681268D26822F02002DA60FB681B68AA
:100CE000FA681268D26822F48072DA60FB681B68C6
:100CF000FA681268526922F001025A61FB68012207
:100D000083F83920FB68002283F8382003234BE066
:100D1000FB681B681A68BB681A40BB689A42BED160
:100D200041E038E03B68B3F1FF3F34D03B68002B33
:100D300007D000F04FFF02467B69D21A3B689A4207
:100D400029D9FB681B68FA681268D26822F0800211
:100D5000DA60FB681B68FA681268D26822F0200229
:100D6000DA60FB681B68FA681268D26822F4807245
:100D7000DA60FB681B68FA681268526922F00102A7
:100D80005A61FB68012283F83920FB68002283F84E
:100D90003820032308E0FB681B681A68BB681A4008
:100DA000BB689A42BED0002318461837BD4680BDA6
:100DB000F0B585B000AF78600023FB607B681B68EE
:100DC0001B69FB60FB6823F44053FB607B68DB68B6
:100DD000FA681343FB607B681B68FA681A617B68DA
:100DE0001B68DB68FB60FB6823F4164323F00C03ED
:100DF000FB607B689A687B681B691A437B685B6948
:100E00001A437B68DB691343FA681343FB607B6812
:100E10001B68FA68DA607B681B685B69FB60FB68CB
:100E200023F44073FB607B689B69FA681343FB60A3
:100E30007B681B68FA685A617B68DB69B3F5004F11
:100E400040F08E807B681A688D4B9A4204D07B6894
:100E50001A688C4B9A4241D17B681C6801F0CEF92C
:100E6000024613469B0013449A001A447B685B6851
:100E70005B00B2FBF3F2844BA3FB02135B091D0181
:100E800001F0BCF9024613469B0013449A001A4431
:100E90007B685B685B00B2FBF3F601F0AFF90246DA
:100EA00013469B0013449A001A447B685B685B00FE
:100EB000B2FBF3F2744BA3FB02135B09642202FB47
:100EC00003F3F31A1B0103F132026F4BA3FB02136E
:100ED0005B0903F00F032B43A360CEE07B681C6823
:100EE00001F06AF9024613469B0013449A001A4423
:100EF0007B685B685B00B2FBF3F2634BA3FB0213FE
:100F00005B091D0101F058F9024613469B0013448A
:100F10009A001A447B685B685B00B2FBF3F601F051
:100F20004BF9024613469B0013449A001A447B680F
:100F30005B685B00B2FBF3F2534BA3FB02135B094C
:100F4000642202FB03F3F31A1B0103F132024E4B3E
:100F5000A3FB02135B0903F00F032B43A3608CE098
:100F60007B681A68464B9A4204D07B681A68454BE6
:100F70009A4241D17B681C6801F040F90246134651
:100F80009B0013449A001A447B685B689B00B2FB89
:100F9000F3F23D4BA3FB02135B091D0101F02EF997
:100FA000024613469B0013449A001A447B685B6810
:100FB0009B00B2FBF3F601F021F9024613469B00B9
:100FC00013449A001A447B685B689B00B2FBF3F2FF
:100FD0002D4BA3FB02135B09642202FB03F3F31AFC
:100FE0001B0103F13202284BA3FB02135B0903F040
:100FF0000F032B43A36040E07B681C6801F0DCF822
:10100000024613469B0013449A001A447B685B68AF
:101010009B00B2FBF3F21C4BA3FB02135B091D0107
:1010200001F0CAF8024613469B0013449A001A4482
:101030007B685B689B00B2FBF3F601F0BDF80246EB
:1010400013469B0013449A001A447B685B689B001C
:10105000B2FBF3F20C4BA3FB02135B09642202FB0D
:1010600003F3F31A1B0103F13202074BA3FB021334
:101070005B0903F00F032B43A3601437BD46F0BD9B
:1010800000100140001401401F85EB5180B582B073
:1010900000AF78607B68002B01D101231DE07B68E5
:1010A00093F83930DBB2002B06D17B68002283F83D
:1010B00038207868FFF7A0FC7B68022283F839208B
:1010C0007B681A687B6804331046194600F026F8DE
:1010D0007B68012283F83920002318460837BD4673
:1010E00080BD00BF80B483B000AF78607B681B68B0
:1010F0007A681268D26842F00102DA607B681B6885
:101100007A681268126842F001021A6000231846D9
:101110000C37BD465DF8047B704700BF80B485B0D6
:1011200000AF786039600023FB607B681B68FB6060
:101130007A68354B9A420FD07B68B3F1804F0BD061
:101140007A68324B9A4207D07A68314B9A4203D080
:101150007A68304B9A4201D1012300E00023002B32
:1011600008D0FB6823F07003FB603B685B68FA689B
:101170001343FB607A68244B9A421BD07B68B3F11F
:10118000804F17D07A68214B9A4213D07A68204B4F
:101190009A420FD07A681F4B9A420BD07A681E4B46
:1011A0009A4207D07A681D4B9A4203D07A681C4B4A
:1011B0009A4201D1012300E00023002B08D0FB68F4
:1011C00023F44073FB603B68DB68FA681343FB6001
:1011D0007B68FA681A603B689A687B68DA623B68E9
:1011E0001A687B689A627A68074B9A4203D13B6817
:1011F0001A697B681A637B6801225A611437BD46FD
:101200005DF8047B704700BF00000140000400400F
:1012100000080040000C0040004001400044014034
:101220000048014080B582B000AF00237B60154BC1
:10123000144A126B42F001021A63124B1B6B03F04B
:1012400001037B607B68104B104A1A600E4B4FF411
:10125000E1325A600C4B00229A600B4B0022DA609C
:10126000094B00221A61084B0C225A61064B0022DE
:101270009A61054B0022DA610348FFF70DFC08373D
:10128000BD4680BD003802403404002000440040C8
:1012900080B582B000AF78600B46FB70FB789BB2E4
:1012A000044879681A464FF6FF73FFF73FFC08378A
:1012B000BD4680BD3404002080B582B000AF104B25
:1012C0007B60104B3B6007E03B681A1D3A607A6810
:1012D000111D796012681A603A680B4B9A42F3D379
:1012E0000A480B494FF000028842B8BF40F8042B6F
:1012F000FFF6FAAF00F012F80837BD4680BD00BF18
:10130000542A000800000020340400203404002087
:101310000C05002080B400AFFEE700BF80B500AF31
:1013200000F00CFC00F008F8FFF77CFF01F052FA27
:1013300000F04CF8FEE700BF80B58EB000AF002390
:101340007B601F4B1E4A126C42F080521A641C4B89
:101350001B6C03F080537B607B6800233B60194B60
:10136000184A126822F4404242F400421A60154BB7
:101370001B6803F440433B603B680223BB600123CE
:101380007B611023BB6100233B6207F10803184611
:1013900000F02CFC00F0EAFE02460B4BA3FB02130C
:1013A0009B09184601F048F8042001F051F84FF06D
:1013B000FF300021002201F015F83837BD4680BD0E
:1013C0000038024000700040D34D621080B582B0FA
:1013D00000AF00237B60154B144A126C42F00402EC
:1013E0001A64124B1B6C03F004037B607B68104B88
:1013F0004FF4FA725A600E4B00229A600C4B46F67C
:10140000A102DA600A4B0B4A1A600948FFF73EFE58
:101410000748FFF767FE1E200021012200F0E2FFCF
:101420001E2000F0FBFF0837BD4680BD003802409B
:10143000D00400200008004080B582B000AF114BFE
:101440001B681B6903F00103002B18D00D4B1B68B0
:10145000DB6803F00103002B11D00A4B1B686FF00F
:1014600001021A613B46184601F0CAF93B8819B2DD
:101470007B881AB2BB881BB2034800F007FB083711
:10148000BD4680BDD0040020E029000880B500AF33
:1014900000F092FB00F0F8FF80BD00BF80B582B085
:1014A00000AF0346FB71FB1D18460121FFF7F0FE5C
:1014B0000837BD4680BD00BF80B483B000AF786000
:1014C0000B46FB707B68FA781A70012318460C37BC
:1014D000BD465DF8047B704780B485B000AF78608E
:1014E00039600023FB600AE07B685A1C7A603A6826
:1014F000511C396012781A70FB680133FB603B683D
:101500001B78002BF0D1FB6818461437BD465DF8F8
:10151000047B704780B586B000AFF8607A603B60AE
:101520000B46FB7200237B617B68013B7B603B6861
:10153000092B10D93A681E4BA3FB0213DB08FA7A79
:10154000F86811467A68FFF7E5FF78617B69FA6809
:101550001344FB6011E00DE0FB7AF8681946FFF7D1
:10156000ABFFFB680133FB607B6901337B617B6808
:10157000013B7B607B68002BEEDC39680C4BA3FBE6
:101580000123DA0813469B0013445B00CA1AD3B246
:101590003033DBB2F8681946FFF78EFF03467A69ED
:1015A00013447B617B6918461837BD4680BD00BF78
:1015B000CDCCCCCC80B586B000AFF8607A603B6013
:1015C0000B46FB7200237B613B68002B03DA3B6810
:1015D0005B423B6101E03B683B617B68013B7B60B8
:1015E0003B69092B21D93B68002B0DDA3A692F4B57
:1015F000A3FB0213DB085B42FA7AF86811467A68AB
:10160000FFF7D8FF78610BE03A69284BA3FB021380
:10161000DB08FA7AF86811467A68FFF7CBFF786141
:101620007B69FA681344FB6026E03B68002B03DA11
:101630007B68013B7B600EE00DE0FB7AF8681946A1
:10164000FFF73AFFFB680133FB607B6901337B6185
:101650007B68013B7B607B68002BEEDC3B68002BEA
:101660000ADAF8682D21FFF727FF03467A69134449
:101670007B61FB680133FB6039690C4BA3FB0123E1
:10168000DA0813469B0013445B00CA1AD3B2303306
:10169000DBB2F8681946FFF70FFF03467A69134477
:1016A0007B617B6918461837BD4680BDCDCCCCCC5C
:1016B00080B588B002AFF8607A600A46FA72BB72F1
:1016C00000237B617B68013B7B603B6A1B09002B2D
:1016D00012D03B6A1909FA7ABB7A0091F868114670
:1016E0007A68FFF7E5FF03467A6913447B617B69FB
:1016F000FA681344FB6011E00DE0FB7AF8681946C4
:10170000FFF7DAFEFB680133FB607B6901337B6125
:101710007B68013B7B607B68002BEEDC3B6A03F05F
:101720000F03092B0BD83B6ADBB203F00F03DBB2CC
:101730003033DBB2F8681946FFF7BEFE19E0BB7A1A
:10174000002B0BD03B6ADBB203F00F03DBB2373365
:10175000DBB2F8681946FFF7AFFE0AE03B6ADBB27E
:1017600003F00F03DBB25733DBB2F8681946FFF71B
:10177000A3FE7B6901337B617B6918461837BD4640
:1017800080BD00BF80B58AB002AFF860B9607A60F2
:101790003B600023BB6100237B61FB68002B03D00F
:1017A000FB6800221A70F8E0F7E07B681B78252BB5
:1017B0000BD0FB685A1CFA607A68511C7960127869
:1017C0001A707B6901337B61E7E07B6801331B782A
:1017D000252B0BD1FB685A1CFA6025221A707B68F6
:1017E00002337B607B6901337B61D6E02023FB778A
:1017F0000023BB777B6801337B607B681B78302BD1
:1018000005D13023FB777B6801337B600FE00EE06E
:10181000BB7F1A46920013445B00DAB27B681B78E8
:101820001344DBB2303BBB777B6801337B607B6862
:101830001B782F2B03D97B681B78392BE8D9BA7F0B
:101840007B6913441A46BB689A4205D9BB68DAB271
:101850007B69DBB2D31ABB777B681B78583B202BA4
:1018600000F28D8001A252F823F000BF3919000860
:101870007F1900087F1900087F1900087F190008E8
:101880007F1900087F1900087F1900087F190008D8
:101890007F1900087F19000869190008F11800086D
:1018A0007F1900087F1900087F1900087F190008B8
:1018B000F11800087F1900087F1900087F19000837
:1018C0007F1900087F1900087F1900087F19000898
:1018D0007F1900087F190008551900087F190008B2
:1018E000071900087F1900087F1900081D19000852
:1018F000BA7F3B68191D39601B68F97FF868FFF7EC
:1019000059FEB8613EE0BA7F3B68191D39601B681B
:10191000F97FF868FFF7FEFDB86133E0BA7F3B68F6
:10192000191D39601968FB7F0091F868194600237A
:10193000FFF7BEFEB86125E0BA7F3B68191D39602C
:101940001968FB7F0091F86819460123FFF7B0FE84
:10195000B86117E03B681A1D3A601B68F8681946C1
:10196000FFF7BAFDB8610DE03B681A1D3A601B68CD
:10197000DBB2F8681946FFF79FFDB86102E04FF04F
:10198000FF3325E07B6801337B60BB69FA68134451
:10199000FB607A69BB6913447B617B681B78002B11
:1019A00004D07A69BB689A42FFF4FFAE7A69BB68DB
:1019B0009A4203D2FB6800221A7008E0FB68013BE0
:1019C000FB60FB6800221A707B69013B7B617B69CD
:1019D00018462037BD4680BD80B584B000AFF860A2
:1019E000B9607A60F8686421BA687B68FFF7CAFE5C
:1019F000034618461037BD4680BD00BFB0B5A6B03F
:101A000000AFF860B9607A60144B07F110041D460E
:101A10000FCD0FC40FCD0FC42B68236007F1340323
:101A20001846B9687A68FFF7D7FF0346632B09DDCC
:101A30000B4B1B68DB6807F110021046194600F0DB
:101A400059F8FEE707F134031846F96800F052F838
:101A5000034618469837BD46B0BD00BFFC290008B4
:101A60002804002080B582B000AF78603960064B52
:101A70001B689B68184679683A68FFF7BFFF034602
:101A800018460837BD4680BD280400200FB480B535
:101A900082B000AF07F114033B6038693968FFF783
:101AA000E1FF78607B6818460837BD46BDE8804096
:101AB00004B0704780B582B000AF786039600C4BDD
:101AC0001B689A683B689A4205D0094B1B68DA6824
:101AD0003B689A4206D17B68DBB21846FFF7DEFC12
:101AE0007B6801E04FF0FF3318460837BD4680BDE4
:101AF0002804002080B584B000AF786039600023EE
:101B0000FB6012E07B681B7818463968FFF7D2FF4C
:101B10000346B3F1FF3F02D14FF0FF330AE0FB6809
:101B20000133FB607B6801337B607B681B78002B93
:101B3000E8D1FB6818461037BD4680BD80B500AFC0
:101B40000E4B0E4A126842F400721A600B4B0B4A9D
:101B5000126842F480621A60084B084A126842F424
:101B600080721A60032000F033FC002000F008F8B7
:101B7000FEF7F4FE0023184680BD00BF003C024083
:101B800080B582B000AF786000F0F0FA0246094BF1
:101B9000A3FB02139B09184600F04EFC4FF0FF30E8
:101BA0007968002200F01EFC002318460837BD4665
:101BB00080BD00BFD34D621080B400AF044B1B68E2
:101BC0005A1C034B1A60BD465DF8047B704700BF8A
:101BD0007404002080B400AF034B1B681846BD4658
:101BE0005DF8047B704700BF7404002080B58EB0A0
:101BF00000AF786000237B637B681B6803F0010300
:101C0000002B64D0A04B9B6803F00C03042B0BD07B
:101C10009D4B9B6803F00C03082B12D19A4B5B6819
:101C200003F48003002B0CD0974B1B6803F40033A4
:101C3000002B05D07B685B68002B01D101230BE2F0
:101C400045E0924B00221A70FFF7C4FF786308E06A
:101C5000FFF7C0FF02467B6BD31A642B01D9032325
:101C6000FAE1894B1B6803F40033002BF0D1874B5A
:101C70007A685268D2B21A707B685B68002B13D006
:101C8000FFF7A8FF786308E0FFF7A4FF02467B6B2D
:101C9000D31A642B01D90323DEE17B4B1B6803F4C9
:101CA0000033002BF0D012E0FFF794FF786308E0D8
:101CB000FFF790FF02467B6BD31A642B01D90323F5
:101CC000CAE1714B1B6803F40033002BF0D17B6831
:101CD0001B6803F00203002B77D06B4B9B6803F06B
:101CE0000C03002B0BD0684B9B6803F00C03082BF4
:101CF00026D1654B5B6803F48003002B20D1624B37
:101D00001B6803F00203002B05D07B68DB68012B06
:101D100001D00123A0E15C4B5B4A126822F0F8017C
:101D20007A681069F8223A633A6B92FAA2F2FA6280
:101D3000FA6AB2FA82F200FA02F20A431A6044E046
:101D40007B68DB68002B2AD0514B01221A60FFF719
:101D500041FF786308E0FFF73DFF02467B6BD31A33
:101D6000642B01D9032377E1474B1B6803F002037F
:101D7000002BF0D0444B444A126822F0F8017A68F4
:101D80001069F822BA62BA6A92FAA2F27A627A6AA0
:101D9000B2FA82F200FA02F20A431A6015E03C4BF2
:101DA00000221A60FFF716FF786308E0FFF712FFC2
:101DB00002467B6BD31A642B01D903234CE1324BCF
:101DC0001B6803F00203002BF0D17B681B6803F053
:101DD0000803002B30D07B685B69002B16D02D4B9D
:101DE00001221A60FFF7F6FE786308E0FFF7F2FEC3
:101DF00002467B6BD31A642B01D903232CE1224BBF
:101E00005B6F03F00203002BF0D015E0214B0022A2
:101E10001A60FFF7DFFE786308E0FFF7DBFE02469B
:101E20007B6BD31A642B01D9032315E1164B5B6F2F
:101E300003F00203002BF0D17B681B6803F004035E
:101E4000002B7DD00023BB600F4B0F4A126C42F079
:101E500080521A640C4B1B6C03F08053BB60BB6850
:101E60000D4B0D4A126842F480721A60FFF7B2FE01
:101E7000786313E0FFF7AEFE02467B6BD31A642B48
:101E80000CD90323E8E000BF0038024002380240CA
:101E900000004742800E474200700040704B1B68B4
:101EA00003F48073002BE5D06E4B00221A70FFF70D
:101EB00091FE78630AE0FFF78DFE02467B6BD21A33
:101EC00041F288339A4201D90323C5E0664B1B6F68
:101ED00003F00203002BEED1624B7A689268D2B213
:101EE0001A707B689B68002B15D0FFF773FE786330
:101EF0000AE0FFF76FFE02467B6BD21A41F288338D
:101F00009A4201D90323A7E0574B1B6F03F002034A
:101F1000002BEED014E0FFF75DFE78630AE0FFF7D8
:101F200059FE02467B6BD21A41F288339A4201D99C
:101F3000032391E04C4B1B6F03F00203002BEED107
:101F40007B689B69002B00F08680474B9B6803F001
:101F50000C03082B7DD07B689B69022B62D1434B1D
:101F600000221A60FFF736FE786308E0FFF732FEC2
:101F700002467B6BD31A642B01D903236CE03A4BE6
:101F80001B6803F00073002BF0D1374B7A68D169DE
:101F90007A68126A11437A68506A47F6C0723A62E8
:101FA0003A6A92FAA2F2FA61FA69B2FA82F200FA95
:101FB00002F211437A68926A5208501E4FF440327E
:101FC000BA61BA6992FAA2F27A617A69B2FA82F2D5
:101FD00000FA02F211437A68D06A4FF070623A61F7
:101FE0003A6992FAA2F2FA60FA68B2FA82F200FA58
:101FF00002F20A435A601D4B01221A60FFF7EAFD04
:10200000786308E0FFF7E6FD02467B6BD31A642B8A
:1020100001D9032320E0144B1B6803F00073002B4D
:10202000F0D018E0114B00221A60FFF7D3FD78635F
:1020300008E0FFF7CFFD02467B6BD31A642B01D972
:10204000032309E0084B1B6803F00073002BF0D159
:1020500001E0012300E0002318463837BD4680BD6B
:102060000070004070380240003802406000474273
:1020700080B48BB000AF0023FB6100237B620023A0
:10208000BB6100233B62364B9B6803F00C03042BBF
:1020900006D0082B07D0002B58D1324B3B6258E0BA
:1020A000314B3B6255E02E4B5B6803F03F03FB6115
:1020B0002B4B5B6803F48003002B17D02A4AFB6983
:1020C000B2FBF3F2264B596847F6C0730B4047F654
:1020D000C0717961796991FAA1F139613969B1FA0F
:1020E00081F1CB4003FB02F37B6216E01D4AFB69E2
:1020F000B2FBF3F21A4B596847F6C0730B4047F630
:10210000C071F960F96891FAA1F1B960B968B1FAE2
:1021100081F1CB4003FB02F37B62114B5B6803F45C
:1021200040324FF440337B607B6893FAA3F33B600B
:102130003B68B3FA83F322FA03F301335B00BB611C
:102140007A6ABB69B2FBF3F33B6202E0054B3B6288
:1021500000BF3B6A18462C37BD465DF8047B7047CC
:10216000003802400024F40040787D0180B582B040
:1021700000AFFFF77DFF02460C4B9B6803F0F001B8
:10218000F0237B607B6893FAA3F33B603B68B3FA70
:1021900083F321FA03F30649CB5CDA40054B1A605E
:1021A000044B1B6818460837BD4680BD0038024006
:1021B000202A00083004002080B582B000AFFFF76D
:1021C000D5FF02460B4B9B6803F4E0514FF4E053FC
:1021D0007B607B6893FAA3F33B603B68B3FA83F3BD
:1021E00021FA03F30449CB5C22FA03F318460837BB
:1021F000BD4680BD00380240202A000880B582B06C
:1022000000AFFFF7B3FF02460B4B9B6803F460413E
:102210004FF460437B607B6893FAA3F33B603B68B9
:10222000B3FA83F321FA03F30449CB5C22FA03F3F4
:1022300018460837BD4680BD00380240202A0008F5
:1022400080B485B000AF78607B6803F00703FB6063
:102250000C4BDB68BB60BA684FF6FF031340BB60F2
:10226000FB681A02BB68134343F0BF6343F40033B7
:10227000BB60044BBA68DA601437BD465DF8047B76
:10228000704700BF00ED00E080B400AF044BDB6896
:1022900003F4E0631B0A1846BD465DF8047B7047F3
:1022A00000ED00E080B483B000AF0346FB71084B43
:1022B00097F907205209F97901F01F01012000FA6E
:1022C00001F143F822100C37BD465DF8047B7047DE
:1022D00000E100E080B483B000AF03463960FB71D9
:1022E00097F90730002B0BDA0D49FB7903F00F0348
:1022F000043B3A68D2B21201D2B20B441A7609E01A
:10230000084997F907303A68D2B21201D2B20B44A9
:1023100083F800230C37BD465DF8047B704700BF8F
:1023200000ED00E000E100E080B489B000AFF860AB
:10233000B9607A60FB6803F00703FB61FB69C3F1D6
:102340000703042B28BF0423BB61FB690433062B5E
:1023500002D9FB69033B00E000237B61BB690122DA
:1023600002FA03F35A1EBB681A407B699A407B69E4
:10237000012101FA03F3591E7B680B4013431846F1
:102380002437BD465DF8047B704700BF80B582B03E
:1023900000AF78607B68013BB3F1807F01D30123FC
:1023A0000FE00A4B7A68013A5A604FF0FF300F2174
:1023B000FFF790FF054B00229A60044B07221A603A
:1023C000002318460837BD4680BD00BF10E000E07E
:1023D00080B582B000AF78607868FFF731FF0837CA
:1023E000BD4680BD80B586B000AF0346B9607A6057
:1023F000FB7300237B61FFF747FF78617869B96859
:102400007A68FFF791FF034697F90F2010461946A7
:10241000FFF760FF1837BD4680BD00BF80B582B0B2
:1024200000AF0346FB7197F907301846FFF73AFFF4
:102430000837BD4680BD00BF80B582B000AF786070
:102440007868FFF7A3FF034618460837BD4680BDEE
:1024500080B483B000AF78607B68042B06D1094B51
:10246000084A126842F004021A6005E0054B054A6A
:10247000126822F004021A600C37BD465DF8047B36
:10248000704700BF10E000E080B500AF00F002F838
:1024900080BD00BF80B400AFBD465DF8047B7047CF
:1024A00080B489B000AF7860396000237B6100237D
:1024B0003B610023BB610023FB6159E1FB69012201
:1024C00002FA03F37B613B681A687B6913403B6146
:1024D0003A697B699A4240F048813B685B68022B0D
:1024E00003D03B685B68122B23D1FB69DA087B6859
:1024F000083253F82230BB61FB6903F007039B00ED
:102500000F2202FA03F3DB43BA691340BB613B6855
:102510001A69FB6903F007039B0002FA03F3BA6927
:102520001343BB61FB69DA087B680832B96943F879
:1025300022107B681B68BB61FB695B00032202FA07
:1025400003F3DB43BA691340BB613B685B6803F08C
:102550000302FB695B0002FA03F3BA691343BB6130
:102560007B68BA691A603B685B68012B0BD03B68DB
:102570005B68022B07D03B685B68112B03D03B687C
:102580005B68122B30D17B689B68BB61FB695B0089
:10259000032202FA03F3DB43BA691340BB613B68D1
:1025A000DA68FB695B0002FA03F3BA691343BB61A3
:1025B0007B68BA699A607B685B68BB61FB690122D2
:1025C00002FA03F3DB43BA691340BB613B685B6803
:1025D00003F010031A09FB6902FA03F3BA69134303
:1025E000BB617B68BA695A607B68DB68BB61FB6969
:1025F0005B00032202FA03F3DB43BA691340BB61B9
:102600003B689A68FB695B0002FA03F3BA691343FB
:10261000BB617B68BA69DA603B685B6803F0805332
:10262000002B00F0A2800023FB60564B554A526CF1
:1026300042F480425A64534B5B6C03F48043FB606A
:10264000FB68514BFA699208023253F82230BB61A1
:10265000FB6903F003039B000F2202FA03F3DB4341
:10266000BA691340BB617A68484B9A4219D07A68BC
:10267000474B9A4213D07A68464B9A420DD07A68FB
:10268000454B9A4207D07A68444B9A4201D10423C1
:1026900008E0052306E0032304E0022302E001230F
:1026A00000E00023FA6902F0030292009340BA6945
:1026B0001343BB61344BFA6992080232B96943F89B
:1026C0002210374B1B68BB613B69DB43BA6913407F
:1026D000BB613B685B6803F48033002B03D0BA69AD
:1026E0003B691343BB612E4BBA691A602C4B5B6884
:1026F000BB613B69DB43BA691340BB613B685B6804
:1027000003F40033002B03D0BA693B691343BB6168
:10271000234BBA695A60224B9B68BB613B69DB4320
:10272000BA691340BB613B685B6803F48013002BFC
:1027300003D0BA693B691343BB61194BBA699A600C
:10274000174BDB68BB613B69DB43BA691340BB6174
:102750003B685B6803F40013002B03D0BA693B6944
:102760001343BB610E4BBA69DA60FB690133FB614D
:10277000FB690F2B7FF6A2AE2437BD465DF8047BC4
:10278000704700BF0038024000380140000002409E
:102790000004024000080240000C02400010024009
:1027A000003C014080B483B000AF786013460A4615
:1027B0007A807B707B78002B03D07A887B689A6163
:1027C00003E07B881A047B689A610C37BD465DF88C
:1027D000047B704780B500AFFEF73CF81F208021D6
:1027E000002200F05BF820201F21002200F056F8A4
:1027F00024209821002200F051F80023184680BDC3
:10280000B0B588B004AF786000233B7200237B72C0
:102810000023BB720023FB7200233B7300237B73F6
:102820000023BB730023FB7307F10803082019463C
:102830000722002300F06AF87B7A1B029AB23B7AE7
:1028400013449BB29AB27B681A80FB7A1B029AB23D
:10285000BB7A13449BB29AB27B685A807B7B1B0283
:102860009AB23B7B13449BB29AB27B689A807B7A84
:1028700019463B7A1A46FB7AB87A0546787B0446B5
:10288000387B0095019402900348FFF7FFF800237E
:1028900018461037BD46B0BD302A000880B584B058
:1028A00000AF13460246FA710A46BA717B710023E3
:1028B0003B7300237B73FB793B73BB797B73FB79A1
:1028C0005BB2002B01DAFF231CE07B79002B09D1DE
:1028D00007F10C0207F10C03104619460222FEF71D
:1028E00019F80EE07B79012B09D107F10C0207F1F1
:1028F0000C03104619460222FDF7FEFF01E0FF23FC
:1029000000E0002318461037BD4680BD80B586B074
:1029100000AF39600146F971BA717B7100233B73D6
:1029200000237B730023BB730023FB7300233B74E2
:1029300000237B740023BB740023FB7400233B75CE
:1029400000237B75FB795BB2002B01DAFF2342E0A9
:10295000BB790A2B01D9FF233DE0FB7963F03F03EC
:10296000DBB23B733B68DBB27B737B79002B0BD113
:10297000BB799BB207F10C0107F10C020846114626
:102980001A46FDF7C7FF10E07B79012B0BD1BB790D
:102990009BB207F10C0107F10C02084611461A46DA
:1029A000FDF7AAFF01E0FF2315E00123FB750DE011
:1029B000FB7D013B3A681344FA7D07F118010A4494
:1029C00012F80C2C1A70FB7D0133FB75FA7DBB7974
:1029D0009A42EDD3002318461837BD4680BD00BF8C
:1029E00058203D2025642C2059203D2025642C2092
:1029F0005A203D2025640D0A0000000073746469AC
:102A00006F2E633A20696E637265617365204D4174
:102A1000585F535452494E475F53495A450A0D0077
:102A20000000000001020304010203040607080974
:102A300058203D2025782025782C2059203D202520
:102A4000782025782C205A203D2025782025780DC7
:042A50000A00000078
:102A54000000000000000000010000000000000071
:102A64000000000000000000000000000000000062
:102A74000000000000000000000000000000000052
:102A84000000000000000000000000000000000042
:102A94000000000000000000000000000000000032
:102E7400000000000000000000000020000000002E
:042E84000024F40032
:0400000508000000EF
:00000001FF
