:020000040800F2
:10000000000900202D090008890900088909000855
:100010008909000889090008890900080000000012
:100020000000000000000000000000008909000836
:100030008909000800000000890900080D0D00086A
:100040008909000889090008890900088909000848
:100050008909000889090008890900088909000838
:100060008909000889090008890900088909000828
:100070008909000889090008890900088909000818
:100080008909000889090008890900088909000808
:1000900089090008890900088909000889090008F8
:1000A00089090008890900088909000889090008E8
:1000B0008909000889090008C50C00088909000899
:1000C00089090008890900088909000889090008C8
:1000D00089090008890900088909000889090008B8
:1000E00089090008890900088909000889090008A8
:1000F0008909000889090008890900088909000898
:100100008909000889090008890900088909000887
:100110008909000889090008890900088909000877
:100120008909000889090008890900088909000867
:100130008909000889090008890900088909000857
:100140008909000889090008890900088909000847
:100150008909000889090008890900088909000837
:100160008909000889090008890900088909000827
:100170008909000889090008890900088909000817
:10018000890900088909000880B586B000AF0023FE
:100190003B600E4A0D4B1B6B43F0010313630B4B8B
:1001A0001B6B03F001033B603B6820237B60012352
:1001B000BB600023FB6000233B613B1D19460448E4
:1001C00001F0CAFB00BF1837BD4680BD00380240B1
:1001D0000000024080B500AF01222021024801F05A
:1001E00055FD00BF80BD00BF0000024080B500AFDC
:1001F00000222021024801F049FD00BF80BD00BF60
:100200000000024080B500AF032001F025FA002273
:1002100000214FF0FF3001F02BFA00BF80BD00BF7E
:1002200080B485B000AF78607B681B680A4A93424F
:100230000DD10023FB60094A084B1B6C43F00403FB
:100240001364064B1B6C03F00403FB60FB6800BFE8
:100250001437BD4680BC704700080040003802409B
:1002600080B588B000AF78607B681B68124A934203
:100270001DD10023BB60114A104B1B6C43F40033AB
:1002800013640E4B1B6C03F40033BB60BB680C2380
:10029000FB6002233B6101237B610323BB610723D6
:1002A000FB6107F10C031946054801F055FB00BF3F
:1002B0002037BD4680BD00BF0044004000380240EA
:1002C0000000024080B582B000AF00F05BF803464A
:1002D0003B803A78114B1B789A4209D00F4B1B7820
:1002E000012B02D102237B7004E001237B7001E02B
:1002F00000237B707A78094B5A703A78074B1A7052
:100300003B88BB8000233A7962F307037A7962F372
:100310000F2318460837BD4680BD00BF6800002087
:1003200080B586B000AF00233B60134A124B1B6BB5
:1003300043F004031363104B1B6B03F004033B6097
:100340003B684FF400537B600023BB600023FB60DD
:100350003B1D1946094801F0FFFA00F013F8024668
:10036000074B12B211461970C2F307225A700023CC
:1003700018461837BD4680BD0038024000080240CC
:100380006800002080B582B000AF4FF400510A48E9
:1003900001F064FC03463B7000237B703B88BB800C
:1003A00000233A7962F307037A7962F30F23184640
:1003B0000837BD4680BD00BF0008024080B582B04E
:1003C00000AF78607B68002B01D101233BE07B68A4
:1003D00093F83930DBB2002B06D17B68002283F81A
:1003E00038207868FFF73CFF7B68022283F83920C9
:1003F0007B681B687A681268D26822F40052DA605F
:10040000786800F025F87B681B687A6812681269C2
:1004100022F490421A617B681B687A6812685269FC
:1004200022F02A025A617B681B687A681268D268D7
:1004300042F40052DA607B680022DA637B680122B2
:1004400083F83920002318460837BD4680BD00BF19
:10045000F0B585B000AF78600023FB607B681B6857
:100460001B69FB60FB6823F44053FB607B68DB681F
:10047000FA681343FB607B681B68FA681A617B6843
:100480001B68DB68FB60FB6823F4164323F00C0356
:10049000FB607B689A687B681B691A437B685B69B1
:1004A0001A437B68DB691343FA681343FB607B687C
:1004B0001B68FA68DA607B681B685B69FB60FB6835
:1004C00023F44073FB607B689B69FA681343FB600D
:1004D0007B681B68FA685A617B68DB69B3F5004F7B
:1004E00040F08C807B681B688C4A934204D07B6808
:1004F0001B688B4A934240D17B681C6800F070FFF8
:10050000024613469B0013449A001A447B685B68BA
:100510005B00B2FBF3F3834AA2FB03235B091D01DB
:1005200000F05EFF024613469B0013449A001A44F3
:100530007B685B685B00B2FBF3F600F051FF02469C
:1005400013469B0013449A001A447B685B685B0067
:10055000B2FBF3F3734AA2FB03235B09642202FBA1
:1005600003F3F31A1B0132336E4AA2FB03235B0928
:1005700003F00F032B43A360CCE07B681C6800F002
:100580000DFF024613469B0013449A001A447B68F1
:100590005B685B00B2FBF3F3624AA2FB03235B09D7
:1005A0001D0100F0FBFE024613469B0013449A0017
:1005B0001A447B685B685B00B2FBF3F600F0EEFE6A
:1005C000024613469B0013449A001A447B685B68FA
:1005D0005B00B2FBF3F3534AA2FB03235B096422E3
:1005E00002FB03F3F31A1B0132334E4AA2FB03232F
:1005F0005B0903F00F032B43A3608BE07B681B6850
:10060000464A934204D07B681B68454A934240D1D6
:100610007B681C6800F0E4FE024613469B0013440E
:100620009A001A447B685B689B00B2FBF3F33D4A77
:10063000A2FB03235B091D0100F0D2FE0246134614
:100640009B0013449A001A447B685B689B00B2FBD2
:10065000F3F600F0C5FE024613469B0013449A00D1
:100660001A447B685B689B00B2FBF3F32D4AA2FB44
:1006700003235B09642202FB03F3F31A1B013233E9
:10068000284AA2FB03235B0903F00F032B43A3605B
:1006900040E07B681C6800F081FE024613469B0028
:1006A00013449A001A447B685B689B00B2FBF3F327
:1006B0001C4AA2FB03235B091D0100F06FFE0246EA
:1006C00013469B0013449A001A447B685B689B00A6
:1006D000B2FBF3F600F062FE024613469B001344A1
:1006E0009A001A447B685B689B00B2FBF3F30D4AE7
:1006F000A2FB03235B09642202FB03F3F31A1B0131
:100700003233084AA2FB03235B0903F00F032B4398
:10071000A360FFE700BF1437BD46F0BD00100140E5
:10072000001401401F85EB5180B582B000AF7860A6
:100730007B68002B01D101231DE07B6893F83930E1
:10074000DBB2002B06D17B68002283F83820786862
:10075000FFF766FD7B68022283F839207B681A6800
:100760007B6804331946104600F024F87B680122A8
:1007700083F83920002318460837BD4680BD00BFE6
:1007800080B483B000AF78607B681B687A681268B9
:10079000D26842F00102DA607B681B687A681268EE
:1007A000126842F001021A60002318460C37BD4659
:1007B00080BC704780B485B000AF7860396000239A
:1007C000FB607B681B68FB607B68354A93420FD0F7
:1007D0007B68B3F1804F0BD07B68324A934207D0DD
:1007E0007B68314A934203D07B68304A934201D1FF
:1007F000012300E00023002B08D0FB6823F07003E6
:10080000FB603B685B68FA681343FB607B68244AC3
:1008100093421BD07B68B3F1804F17D07B68214A8D
:10082000934213D07B68204A93420FD07B681F4AC3
:1008300093420BD07B681E4A934207D07B681D4AC7
:10084000934203D07B681C4A934201D1012300E00C
:100850000023002B08D0FB6823F44073FB603B6847
:10086000DB68FA681343FB607B68FA681A603B68D0
:100870009A687B68DA623B681A687B689A627B6870
:10088000074A934203D13B681A697B681A637B6805
:1008900001225A6100BF1437BD4680BC704700BFBB
:1008A000000001400004004000080040000C00402F
:1008B00000400140004401400048014080B582B042
:1008C00000AF00237B60164A154B1B6B43F00103FE
:1008D0001363134B1B6B03F001037B607B68114BAD
:1008E000114A1A600F4B4FF4E1325A600D4B00224F
:1008F0009A600C4B0022DA600A4B00221A61094B05
:100900000C225A61074B00229A61064B0022DA61E1
:100910000448FFF753FD00BF0837BD4680BD00BF48
:1009200000380240040000200044004080B582B03E
:1009300000AF104B7B60104B3B6007E03B681A1D1B
:100940003A607A68111D796012681A603B680B4A38
:100950009342F3D30A480B494FF000028842B8BFD4
:1009600040F8042BFADB00F019F900BF0837BD4648
:1009700080BD00BFCC1C0008000000200400002047
:10098000040000200001002080B400AFFEE700BF9B
:1009900080B582B000AF78607B68002B02D14FF049
:1009A000FF3311E07B68282B02D94FF0FF330BE0B7
:1009B000074B00221A60074B00221A607B68064A28
:1009C0001360FFF7ADFC002318460837BD4680BD15
:1009D00044000020480000204C00002080B582B078
:1009E00000AF0023FB71FFF76DFC0346BB80384B63
:1009F0001B68002B52DD364B1A68364B1B681344BC
:100A0000334A13603B79002B06D1334B1A68314BC4
:100A10001B681344304A13602D4B1B6841F27072FF
:100A2000934213DD2C4B1A68294B1B689A4206D15E
:100A30003B1D184600F054F80323FB710CE03B1DEE
:100A4000184600F04DF80023FB7105E03B1D1846E9
:100A500000F062F80346FB71FB79012B0FD11F4BAD
:100A60001B78012B06D10223FB713B1D184600F0B9
:100A700037F804E00023FB71184B01221A70174B62
:100A80001B78012B0AD1124B1B68B3F52F7F05DDB4
:100A90000123FB713B1D184600F022F87B79022BE5
:100AA00011D10B4B1B68002B0DD1094B1A68094B58
:100AB0001B681344064A1360074B1A68054B1B68F2
:100AC0001344054A1360FB7918460837BD4680BDBC
:100AD000440000204C00002048000020500000206E
:100AE00080B483B000AF78607B6800225A70074BF7
:100AF00000221A70064B00221A60064B00221A6070
:100B000000BF0C37BD4680BC704700BF50000020BE
:100B1000440000204800002080B485B000AF786019
:100B20007B685B78012B2FD11A4B1B68002B2BDDC8
:100B3000194B1B68312B02DC0423FB731BE0164BA3
:100B40001B68B3F52F7F02DA0123FB7313E0124B0E
:100B50001B6841F28732934202DC0423FB730AE0F4
:100B60000D4B1B6841F26F72934202DC0323FB734F
:100B700001E00423FB73084B00221A60FB7B042B6B
:100B800002D1044B00221A60FB7B18461437BD4685
:100B900080BC7047440000204800002080B584B02D
:100BA00000AF3B1D00221A605A601A7200F0B6F8BE
:100BB00000F006F800F036FC00F04EF8FEE700BF4B
:100BC00080B58EB000AF00237B60204A1F4B1B6CAA
:100BD00043F0805313641D4B1B6C03F080537B6008
:100BE0007B6800233B601A4A194B1B6823F440437F
:100BF00043F400431360164B1B6803F440433B600F
:100C00003B680223BB6001237B611023BB6100238F
:100C10003B6207F10803184600F0D6F800F096FB97
:100C200002460C4BA3FB02239B09184600F04AFD29
:100C3000042000F053FD002200214FF0FF3000F0AF
:100C400017FD00BF3837BD4680BD00BF00380240E9
:100C500000700040D34D621080B582B000AF002319
:100C60007B60154A144B1B6C43F004031364124B56
:100C70001B6C03F004037B607B68104B05225A60F9
:100C80000E4B00229A600D4B46F6A102DA600B4B28
:100C90000B4A1A600948FFF747FD0848FFF770FD47
:100CA000012200211E2000F0E3FC1E2000F0FCFCCD
:100CB00000BF0837BD4680BD00380240C400002098
:100CC0000008004080B582B000AF3B4600221A60A9
:100CD0009A8055233B700C4B1B681B6903F0010382
:100CE000002B0DD0084B1B68DB6803F00103002BC1
:100CF00006D0054B1B686FF001021A6100F09EFBE5
:100D000000BF0837BD4680BDC400002080B500AFDD
:100D100000F042F800F0FEFC00BF80BD80B500AFDF
:100D20000E4A0E4B1B6843F4007313600B4A0B4BC7
:100D30001B6843F480631360084A084B1B6843F444
:100D400080731360032000F087FC002000F008F897
:100D5000FFF758FA0023184680BD00BF003C024050
:100D600080B582B000AF786000F0F0FA0246094B1F
:100D7000A3FB02239B09184600F0A4FC002279681B
:100D80004FF0FF3000F074FC002318460837BD46D2
:100D900080BD00BFD34D621080B400AF044B1B6810
:100DA0000133034A136000BFBD4680BC704700BFDB
:100DB0005400002080B400AF024B1B681846BD46AB
:100DC00080BC70475400002080B58EB000AF7860C2
:100DD00000237B637B681B6803F00103002B65D055
:100DE000A74B9B6803F00C03042B0BD0A44B9B6810
:100DF00003F00C03082B11D1A14B5B6803F48003B3
:100E0000002B0BD09E4B1B6803F40033002B4CD0FF
:100E10007B685B68002B48D101230EE2994B0022CE
:100E20001A70FFF7C7FF786308E0FFF7C3FF0246B9
:100E30007B6BD31A642B01D90323FEE1904B1B6813
:100E400003F40033002BF0D18E4A7B685B68DBB281
:100E500013707B685B68002B13D0FFF7ABFF7863E0
:100E600008E0FFF7A7FF02467B6BD31A642B01D97A
:100E70000323E2E1824B1B6803F40033002BF0D024
:100E800014E0FFF797FF786308E0FFF793FF02464F
:100E90007B6BD31A642B01D90323CEE1784B1B68FB
:100EA00003F40033002BF0D100E000BF7B681B6827
:100EB00003F00203002B77D0714B9B6803F00C0307
:100EC000002B0BD06E4B9B6803F00C03082B26D134
:100ED0006B4B5B6803F48003002B20D1684B1B68CD
:100EE00003F00203002B05D07B68DB68012B01D0E7
:100EF0000123A2E16248624B1B6823F0F8027B6881
:100F00001969F8233B623B6A93FAA3F3FB61FB691F
:100F1000B3FA83F301FA03F31343036044E07B68FD
:100F2000DB68002B2AD0584B01221A60FFF742FFE2
:100F3000786308E0FFF73EFF02467B6BD31A642B11
:100F400001D9032379E14E4B1B6803F00203002B08
:100F5000F0D04B484A4B1B6823F0F8027B681969B4
:100F6000F823FB62FB6A93FAA3F3BB61BB69B3FA94
:100F700083F301FA03F31343036015E0424B0022AD
:100F80001A60FFF717FF786308E0FFF713FF0246C8
:100F90007B6BD31A642B01D903234EE1384B1B68BA
:100FA00003F00203002BF0D17B681B6803F00803F9
:100FB000002B30D07B685B69002B16D0334B0122AD
:100FC0001A60FFF7F7FE786308E0FFF7F3FE0246CA
:100FD0007B6BD31A642B01D903232EE1284B5B6F63
:100FE00003F00203002BF0D015E0284B00221A601A
:100FF000FFF7E0FE786308E0FFF7DCFE02467B6B5C
:10100000D31A642B01D9032317E11D4B5B6F03F047
:101010000203002BF0D17B681B6803F00403002B54
:101020007FD00023BB60164A154B1B6C43F08053E6
:101030001364134B1B6C03F08053BB60BB68144AF2
:10104000134B1B6843F480731360FFF7B3FE7863A0
:1010500008E0FFF7AFFE02467B6BD31A642B01D981
:101060000323EAE00A4B1B6803F48073002BF0D0E3
:10107000084B00221A70FFF79DFE786317E000BF4F
:10108000003802400238024000004742800E4742CA
:101090000070004070380240FFF78CFE02467B6B08
:1010A000D31A41F28832934201D90323C5E0654B3C
:1010B0001B6F03F00203002BEED1634A7B689B6831
:1010C000DBB213707B689B68002B15D0FFF772FEB4
:1010D00078630AE0FFF76EFE02467B6BD31A41F29B
:1010E0008832934201D90323A7E0564B1B6F03F0CC
:1010F0000203002BEED014E0FFF75CFE78630AE0F9
:10110000FFF758FE02467B6BD31A41F288329342B6
:1011100001D9032391E04B4B1B6F03F00203002B1B
:10112000EED17B689B69002B00F08680454B9B6865
:1011300003F00C03082B7DD07B689B69022B62D1E6
:10114000424B00221A60FFF735FE786308E0FFF794
:1011500031FE02467B6BD31A642B01D903236CE06A
:10116000384B1B6803F00073002BF0D135487B68C7
:10117000DA697B681B6A1A437B68596A47F6C07351
:10118000BB62BB6A93FAA3F3FB60FB68B3FA83F319
:1011900001FA03F31A437B689B6A5B08591E4FF4FC
:1011A00040337B627B6A93FAA3F33B613B69B3FAFA
:1011B00083F301FA03F31A437B68D96A4FF0706333
:1011C0003B633B6B93FAA3F37B617B69B3FA83F3D5
:1011D00001FA03F3134343601C4B01221A60FFF72B
:1011E000E9FD786308E0FFF7E5FD02467B6BD31A63
:1011F000642B01D9032320E0124B1B6803F000731A
:10120000002BF0D018E0114B00221A60FFF7D2FD3E
:10121000786308E0FFF7CEFD02467B6BD31A642BA0
:1012200001D9032309E0074B1B6803F00073002B6F
:10123000F0D101E0012300E0002318463837BD4615
:1012400080BD00BF00380240703802406000474255
:1012500080B48BB000AF0023FB6100237B620023CE
:10126000BB6100233B62364B9B6803F00C03042BED
:1012700006D0082B07D0002B58D1324B3B6258E0E8
:10128000314B3B6255E02E4B5B6803F03F03FB6143
:101290002B4B5B6803F48003002B17D02A4AFB69B1
:1012A000B2FBF3F2264B596847F6C0730B4047F682
:1012B000C071F960F96891FAA1F1B960B968B1FA41
:1012C00081F1CB4003FB02F37B6216E01D4AFB6910
:1012D000B2FBF3F21A4B596847F6C0730B4047F65E
:1012E000C0717961796991FAA1F179607968B1FA8F
:1012F00081F1CB4003FB02F37B62114B5B6803F48B
:1013000040324FF440333B613B6993FAA3F33B60B7
:101310003B68B3FA83F322FA03F301335B00BB614A
:101320007A6ABB69B2FBF3F33B6202E0054B3B62B6
:1013300000BF3B6A18462C37BD4680BC704700BFD3
:10134000003802400024F40040787D0180B582B06E
:1013500000AFFFF77DFF01460D4B9B6803F0F002E5
:10136000F0237B607B6893FAA3F33B603B68B3FA9E
:1013700083F322FA03F3074AD35C21FA03F3064A04
:101380001360054B1B6818460837BD4680BD00BF7B
:1013900000380240BC1C00080000002080B582B06C
:1013A00000AFFFF7D3FF01460B4B9B6803F4E052FD
:1013B0004FF4E0537B607B6893FAA3F33B603B6898
:1013C000B3FA83F322FA03F3044AD35C21FA03F35A
:1013D00018460837BD4680BD00380240BC1C0008D6
:1013E00080B582B000AFFFF7B1FF01460B4B9B68A1
:1013F00003F460424FF460437B607B6893FAA3F38D
:101400003B603B68B3FA83F322FA03F3044AD35CEC
:1014100021FA03F318460837BD4680BD0038024064
:10142000BC1C000880B500AF0A20FFF7B1FA0A2003
:1014300000F07CF9FFF742FA00BF80BD80B582B0B2
:1014400000AFFFF7CBFA0346FB71FB79184600F0BB
:101450000FF80346BB71FA79BB791146184600F0C4
:1014600083F900F0A9F900BF0837BD4680BD00BF71
:1014700080B485B000AF0346FB71FB79002B1ED012
:10148000FB79013B032B17D801A252F823F000BFD0
:10149000A1140008A7140008AD140008B314000834
:1014A0000023FB730BE00123FB7308E00223FB73B3
:1014B00005E00323FB7302E00323FB7300BFFB7B08
:1014C00018461437BD4680BC704700BF80B485B055
:1014D00000AF78607B6803F00703FB600C4BDB68B0
:1014E000BB60BA684FF6FF031340BB60FB681A028B
:1014F000BB68134343F0BF6343F40033BB60044A4B
:10150000BB68D36000BF1437BD4680BC704700BFC6
:1015100000ED00E080B400AF044BDB6803F4E0634F
:101520001B0A1846BD4680BC704700BF00ED00E0B6
:1015300080B483B000AF0346FB71084997F90730C8
:101540005B09FA7902F01F02012000FA02F241F869
:10155000232000BF0C37BD4680BC704700E100E08F
:1015600080B483B000AF03463960FB7197F9073050
:10157000002B0BDA0D49FB7903F00F03043B3A68AB
:10158000D2B21201D2B20B441A7609E0084997F997
:1015900007303A68D2B21201D2B20B4483F800236A
:1015A00000BF0C37BD4680BC704700BF00ED00E0B7
:1015B00000E100E080B489B000AFF860B9607A6003
:1015C000FB6803F00703FB61FB69C3F10703042B0E
:1015D00028BF0423BB61FB690433062B02D9FB69D6
:1015E000033B00E000237B610122BB6902FA03F3A5
:1015F0005A1EBB681A407B699A4001217B6901FA37
:1016000003F3591E7B680B40134318462437BD462D
:1016100080BC704780B582B000AF78607B68013BCA
:10162000B3F1807F01D301230FE00A4A7B68013BBD
:1016300053600F214FF0FF30FFF792FF054B002260
:101640009A60044B07221A60002318460837BD46EB
:1016500080BD00BF10E000E080B582B000AF7860D0
:101660007868FFF733FF00BF0837BD4680BD00BF75
:1016700080B586B000AF0346B9607A60FB73002383
:101680007B61FFF747FF78617A68B9687869FFF78F
:1016900091FF024697F90F3011461846FFF760FF99
:1016A00000BF1837BD4680BD80B582B000AF03468D
:1016B000FB7197F907301846FFF73AFF00BF08376C
:1016C000BD4680BD80B582B000AF78607868FFF716
:1016D000A1FF034618460837BD4680BD80B483B0DD
:1016E00000AF78607B68042B06D1094A084B1B6861
:1016F00043F00403136005E0054A054B1B6823F023
:101700000403136000BF0C37BD4680BC704700BFA8
:1017100010E000E080B500AF00F002F800BF80BD2F
:1017200080B400AF00BFBD4680BC704780B582B0BA
:1017300000AF7860FEF728FD074A7B681360074B0F
:1017400000221A60064B01221A70064B00221A7002
:1017500000BF0837BD4680BD580000205C00002057
:10176000600000206100002080B582B000AF034619
:101770000A46FB711346BB710B4B1B78FA799A42F0
:101780000DD0094AFB791370084ABB791370084BD6
:1017900000221A60FEF72AFD064B01221A6000BFE4
:1017A0000837BD4680BD00BF6000002061000020FA
:1017B0005C0000206400002080B582B000AF0F4BB9
:1017C0001A680F4B1B6813440C4A136000F01CF896
:1017D00078600A4B1A687B689A4202D9074B00224C
:1017E0001A60084B1B68012B02D100F077F801E06A
:1017F00000F09CF800BF0837BD4680BD5C000020AB
:10180000580000206400002080B483B000AF1A4B61
:101810001B68002B03D040F6B8337B6021E0174BE8
:101820001B78032B19D801A252F823F03D180008A9
:10183000451800084D180008531800084FF47A7333
:101840007B600EE042F210737B600AE0C8237B608D
:1018500007E04FF47A737B6003E04FF47A737B60A8
:1018600000BF074B1B687A6813447B607B6818468F
:101870000C37BD4680BC704764000020600000202B
:101880005800002080B483B000AF134B1B78032BAB
:1018900017D801A252F823F0A9180008AF180008C1
:1018A000B5180008BB18000864237B600DE06423B2
:1018B0007B600AE064237B6007E04FF4FA737B608F
:1018C00003E04FF4FA737B6000BF7B6818460C3767
:1018D000BD4680BC704700BF6000002080B500AFEF
:1018E0000F4B1B68B3F57A7F02D2FEF77FFC15E041
:1018F0000B4B1B68B3F5FA6F10D3094B1B6840F60E
:10190000B732934202D8FEF771FC07E0FEF76EFC97
:10191000044B00221A60044B00221A7000BF80BDE5
:101920005C000020640000206100002080B582B0CF
:1019300000AFFFF7A7FF7860064B1A687B689A42F2
:1019400002D2FEF747FC01E0FEF750FC00BF08376B
:10195000BD4680BD5C00002080B489B000AF7860D7
:10196000396000237B6100233B610023BB610023BE
:10197000FB6159E10122FB6902FA03F37B613B68D9
:101980001A687B6913403B613A697B699A4240F06F
:1019900048813B685B68022B03D03B685B68122B75
:1019A00023D1FB69DA087B68083253F82230BB6127
:1019B000FB6903F007039B000F2202FA03F3DB43EA
:1019C000BA691340BB613B681A69FB6903F00703FE
:1019D0009B0002FA03F3BA691343BB61FB69DA089F
:1019E0007B680832B96943F822107B681B68BB61C9
:1019F000FB695B00032202FA03F3DB43BA6913407D
:101A0000BB613B685B6803F00302FB695B0002FAA1
:101A100003F3BA691343BB617B68BA691A603B6818
:101A20005B68012B0BD03B685B68022B07D03B68DF
:101A30005B68112B03D03B685B68122B30D17B684D
:101A40009B68BB61FB695B00032202FA03F3DB4383
:101A5000BA691340BB613B68DA68FB695B0002FA54
:101A600003F3BA691343BB617B68BA699A607B6808
:101A70005B68BB610122FB6902FA03F3DB43BA69CD
:101A80001340BB613B685B681B0903F00102FB6903
:101A900002FA03F3BA691343BB617B68BA695A60FF
:101AA0007B68DB68BB61FB695B00032202FA03F31E
:101AB000DB43BA691340BB613B689A68FB695B0012
:101AC00002FA03F3BA691343BB617B68BA69DA604F
:101AD0003B685B6803F08053002B00F0A28000237A
:101AE000FB60564A554B5B6C43F480435364534B45
:101AF0005B6C03F48043FB60FB68514AFB699B0805
:101B0000023352F82330BB61FB6903F003039B00EF
:101B10000F2202FA03F3DB43BA691340BB617B680F
:101B2000484A934219D07B68474A934213D07B6856
:101B3000464A93420DD07B68454A934207D07B6862
:101B4000444A934201D1042308E0052306E003231D
:101B500004E0022302E0012300E00023FA6902F01E
:101B6000030292009340BA691343BB613449FB6995
:101B70009B080233BA6941F82320374B1B68BB61CD
:101B80003B69DB43BA691340BB613B685B6803F4A4
:101B90008033002B03D0BA693B691343BB612E4AE3
:101BA000BB6913602C4B5B68BB613B69DB43BA6963
:101BB0001340BB613B685B6803F40033002B03D028
:101BC000BA693B691343BB61234ABB695360224B2B
:101BD0009B68BB613B69DB43BA691340BB613B68EF
:101BE0005B6803F48013002B03D0BA693B6913438D
:101BF000BB61194ABB699360174BDB68BB613B69EA
:101C0000DB43BA691340BB613B685B6803F40013B4
:101C1000002B03D0BA693B691343BB610E4ABB6911
:101C2000D360FB690133FB61FB690F2B7FF6A2AE2A
:101C300000BF2437BD4680BC704700BF003802405B
:101C40000038014000000240000402400008024049
:101C5000000C024000100240003C014080B485B0FE
:101C600000AF78600B467B807B681A697B881340E5
:101C7000002B02D00123FB7301E00023FB73FB7BED
:101C800018461437BD4680BC704700BF80B483B08F
:101C900000AF78600B467B8013467B707B78002B0F
:101CA00003D07A887B689A6103E07B881A047B689A
:101CB0009A6100BF0C37BD4680BC70470000000031
:0C1CC000010203040102030406070809E6
:041CCC000024F400FC
:0400000508000000EF
:00000001FF
